:1040000000800020A56400008D6400008D64000025
:1040100000000000000000000000000000000000A0
:104020000000000000000000000000008D6400009F
:1040300000000000000000008D640000F964000032
:104040008D6400008D6400008D6400008D640000AC
:104050008D6400008D6400008D6400009164000098
:104060008D640000D96300008D6400008D64000041
:104070002D5C00008D640000E96300008D64000089
:104080008D6400008D640000156200001F62000056
:10409000296200008D6400008D6400008D640000C2
:1040A0008D6400008D6400008D6400008D6400004C
:1040B0000000000010B5064C2378002B07D1054BFB
:1040C000002B02D0044800E000BF0123237010BD84
:1040D0000C02002000000000D4A90000044B10B521
:1040E000002B03D00349044800E000BF10BDC046C8
:1040F0000000000010020020D4A9000010B5192013
:1041000000F074FDFA20400002F034FA10BD10B542
:10411000872000F06BFDFA20800002F02BFA10BD22
:10412000F7B50C00150007001E4E1F493000019323
:1041300002F0BDFC0A222100300002F016FD6401ED
:10414000019A3C19EB00E418954215DA2E00571C31
:10415000FA226168206801F003F9B54206D1FFF741
:10416000CDFF01360834BE42F2D1F7BD019BB34208
:10417000F7D1FFF7CCFFF4E72E00019B5F1EFA2278
:104180006168206801F0ECF8B54201D1FFF7B6FF95
:10419000019BB34201D1FFF7BAFF013E083CBE428A
:1041A000EDD1E2E7840A0020E09D000013B56846E7
:1041B00001F00AFB684601F05DFA0400044801F0D2
:1041C00059FA241A3B20A0428041404216BDC04605
:1041D00028020020F0B589B005930A230E001500CF
:1041E0001A0043439B19DBB20093002701236A4363
:1041F000059904005218D2B2019213491A0002978D
:1042000006A801F0C7F9062206A9104804F0CAFD65
:10421000012C05D13B00032221000D48FFF780FF50
:104220003100002303220B48FFF77AFF2900002307
:1042300003220948FFF774FF00230322059907486A
:10424000FFF76EFF09B0F0BDE40700002802002070
:1042500070A00000F09D0000B0A00000309F0000A2
:1042600013B50B4C200001F01DFA200001F08EFA6E
:10427000002803D10749084802F02AFC074A0849E8
:10428000684601F0ACF96946200001F013FA13BD4D
:104290002E020020B79D0000840A0020CB9D000064
:1042A000D49D000030B589B004000D0004A80021A1
:1042B00001F01AF90023EDB2E4B202930195013343
:1042C00000940722074906A801F064F9062206A90E
:1042D00004A804F067FD04A9034801F0EBF909B054
:1042E00030BDC046E40700002E0200207FB5040068
:1042F000C8780C2813D9FA260D78F600AD194E7936
:104300008B784A78029609790C38C0B201910090F6
:104310002900200001F03EF9200004B070BD20000B
:1043200001F050F9F8E7000037B5050001006846D4
:1043300001F048F96B460A21D87804F07FFB1C4C49
:104340000A22C1B2200002F010FC2900684601F0E8
:1043500039F96B460A21D87804F0F6FB0A22C9B273
:10436000200002F002FC1349200002F0A0FB29000B
:10437000684601F027F96B460A21187904F05EFBC4
:104380000A22C1B2200002F0F0FB2900684601F0C9
:1043900019F96B460A21187904F0D6FB0A22C9B232
:1043A000200002F0E2FB0449200002F080FB37BD50
:1043B000840A00208EA10000E5A7000070B5062544
:1043C00086B004AC0021684601F08EF8200001F0B0
:1043D000FBF92C4E2A002100300004F0E3FC3100F0
:1043E00002A801F0EFF802A92000FFF77FFF2A00E2
:1043F0002100684604F0D6FC2349244802F057FB0C
:104400006946200001F0DEF82000FFF78DFF6946C5
:10441000200001F0D7F820790A2104F095FB03234E
:104420000022C9B21A48FFF77BFE6946200001F05E
:10443000C9F820790A2104F001FB03230022C1B24C
:104440001448FFF76DFE6946200001F0BBF8E078E4
:104450000A2104F079FB03230022C9B20E48FFF7BA
:104460005FFE6946200001F0ADF8E0780A2104F013
:10447000E5FA0323C1B200220848FFF751FE06B057
:1044800070BDC046280200209E9D0000840A0020C6
:10449000309F0000B0A00000F09D000070A0000060
:1044A000F0B589B00021684601F01EF806AC002185
:1044B00002A801F019F8200001F086F90622210077
:1044C000684604F06FFCFFF771FE002800D1E9E0B8
:1044D00004AE6946300001F075F831002000FFF7A6
:1044E00005FF0622210002A804F05CFC6E4D30009E
:1044F000290001F067F831002000FFF7F7FE0622DF
:104500002100280004F04EFC684F6949380002F091
:10451000CEFA2900200001F055F82000FFF704FF33
:104520006449380002F0C3FA02A9200001F04AF8F9
:104530002000FFF7F9FE2900200001F043F8207960
:104540000A2104F001FB5C4F002303223800C9B2AA
:10455000FFF7E6FD02A9200001F034F820790A21D6
:1045600004F0F2FA032300223800C9B2FFF7D8FDA5
:1045700002A9300001F026F830790A2104F05EFA31
:104580002900C7B2200001F01DF820790A2104F0AB
:1045900055FAC0B2B8421CD02900200001F012F830
:1045A00020790A2104F04AFA444F00230322C1B2C1
:1045B0003800FFF7B5FD02A9200001F003F80A2139
:1045C000207904F03BFA0323C1B200223800FFF740
:1045D000A7FD02A9300000F0F5FFF0780A2104F0F1
:1045E000B3FA06ACCFB22000290000F0EBFFE07870
:1045F0000A2104F0A9FAC9B2B9421CD0290020004E
:1046000000F0E0FFE0780A2104F09EFA2C4F00232E
:104610000322C9B23800FFF783FD02A9200000F091
:10462000D1FFE0780A2104F08FFA0323C9B20022F7
:104630003800FFF775FD02A9300000F0C3FFF078E5
:104640000A2104F0FBF906AC2900C6B2200000F0F4
:10465000B9FFE0780A2104F0F1F9C0B2B0421CD0F1
:104660002900200000F0AEFFE0780A2104F0E6F90E
:10467000144E00230322C1B23000FFF751FD02A9FE
:10468000200000F09FFF0A21E07804F0D7F903230F
:10469000C1B200223000FFF743FD06226946280020
:1046A00004F080FB09B0F0BD28020020840A00203D
:1046B000789D0000939D0000309F0000B0A0000096
:1046C000F09D000070A0000010B50021014800F02E
:1046D0000BFF10BD2802002070470000012210B51A
:1046E000034B002102201A7002F010F910BDC046E1
:1046F0003802002010B50021022002F007F90F4C0B
:104700002368013B23602368002B0CD10121022088
:1047100002F0FCF80A4B1A68013A1A601B68002B79
:1047200002DCFFF7DBFF10BD064B07491A68920059
:10473000525822601A6801321A60F4E748020020D9
:10474000440200203C020020F490000010B500213B
:10475000022002F0DBF80F4C2368013B2360236842
:10476000002B0CD10121022002F0D0F80A4B1A686C
:10477000013A1A601B68002B02DCFFF7AFFF10BD87
:10478000064B1A68013A1A601B68054A9B009B5841
:104790002360F4E748020020440200203C0200208D
:1047A000F490000010B50021022002F0AFF80C4C8C
:1047B0002368013B23602368002B0CD101210220D8
:1047C00002F0A4F8074B1A68013A1A601B68002B24
:1047D00002DCFFF783FF10BD034B1B682360FAE781
:1047E000480200204402002040020020012210B5AF
:1047F000034B002103201A7002F088F810BDC04658
:104800003902002010B50021032002F07FF80F4C80
:104810002368013B23602368002B0CD10121032076
:1048200002F074F80A4B1A68013A1A601B68002BF0
:1048300002DCFFF7DBFF10BD064B07491A68920048
:10484000525822601A6801321A60F4E758020020B8
:10485000540200204C020020F490000010B500210A
:10486000032002F053F80F4C2368013B23602368B8
:10487000002B0CD10121032002F048F80A4B1A68E2
:10488000013A1A601B68002B02DCFFF7AFFF10BD76
:10489000064B1A68013A1A601B68054A9B009B5830
:1048A0002360F4E758020020540200204C0200204C
:1048B000F490000010B50021032002F027F80C4C02
:1048C0002368013B23602368002B0CD101210320C6
:1048D00002F01CF8074B1A68013A1A601B68002B9B
:1048E00002DCFFF783FF10BD034B1B682360FAE770
:1048F00058020020540200205002002070B5144CD1
:104900000D0006000021200000F000FB0022114BEA
:1049100011481D60114B12491A70124B964210D06B
:1049200009680132026019600F49200000F0E2FAC4
:104930002000012100F0E6FA0121200000F0E6FA53
:1049400070BD0560AD004A5908491A600122ECE7C4
:10495000C8020020440200203C020020380200204F
:10496000F490000048020020F54600004D4700008A
:1049700070B50F4C06000D002000002100F0C6FAB3
:1049800000220C4B20001E600B4B0C491A700C4B84
:1049900001321D600B4B1D6000F0ACFA20000121BC
:1049A00000F0B0FA0121200000F0B0FA70BDC0465E
:1049B000C80200204402002038020020A547000061
:1049C000400200204802002070B5144C0D00060083
:1049D0000021200000F09AFA0022114B11481D60BE
:1049E000114B12491A70124B964210D009680132CD
:1049F000026019600F49200000F07CFA20000121BC
:104A000000F080FA0121200000F080FA70BD0560FE
:104A1000AD004A5908491A600122ECE7340300202E
:104A2000540200204C02002039020020F4900000C3
:104A300058020020054800005D48000070B50F4C8A
:104A400006000D002000002100F060FA00220C4B4F
:104A500020001E600B4B0C491A700C4B01321D607C
:104A60000B4B1D6000F046FA2000012100F04AFACD
:104A70000121200000F04AFA70BDC0463403002036
:104A80005402002039020020B548000050020020E6
:104A900058020020F0B500230E00140087B0020079
:104AA00004A9070002A8029303930493059300F05E
:104AB000A5FB320005A903A800F0A0FB0A212000F5
:104AC00003F0BCFF0090B7422ADD049805996043CB
:104AD00003F0B4FF0A2103F0B1FF019001233F4A24
:104AE0003F4D13703F4C404A2B6023601370002FE2
:104AF00000D12F60002E00D12660042603272868ED
:104B0000002802D12368002B65D0344B1B78002B82
:104B100021D0013803281ED803F086FF0E16323844
:104B200005980499604303F089FF0A2103F086FF8A
:104B3000009B00900193D1E702990120FFF7DEFE70
:104B400002232B60002117E0049800280FD102995E
:104B5000FFF7D4FE2E60244B1B78002BCFD02368A8
:104B6000581E0328CBD803F05FFF141C2D33009987
:104B7000FFF7FEFE01212F600C2001F0C7FEEAE7DF
:104B800002990020FFF7BAFE2E60DBE700232B60BE
:104B9000E1E703990120FFF717FF022323600021BB
:104BA0000CE00598002804D10399FFF70DFF26605B
:104BB000A5E70199FFF742FF012127600C2001F0D2
:104BC000A5FE9CE703990020FFF7FEFE2660E6E7BE
:104BD0000023236093E707B0F0BDC04638020020F1
:104BE0003002002034020020390200206F2310B56B
:104BF00058430A2103F0ACFF0100F531FF310248B0
:104C000000F039FA10BDC0465C02002030B5012426
:104C10000E4D85B02A0000940A2305210C4800F0AF
:104C20000CFA2A0000940A2304210A4800F005FA2D
:104C3000094B02940193094B0022009303210523A1
:104C4000074800F0DBF905B030BDC046D94600008A
:104C5000C802002034030020DC050000204E0000C4
:104C60005C020020962110B5154C8901200002F04D
:104C7000C5FB1449200001F01AFF0121072001F0B3
:104C8000F9FD0121022001F0F5FD0121062001F0CE
:104C9000F1FD0121032001F0EDFD0121082001F0CB
:104CA000E9FD0221092001F0E5FD02210A2001F0C1
:104CB000E1FD0021082001F029FEFFF7D1FA10BD27
:104CC000840A002072A2000010B5FA24A400FFF7A5
:104CD000E7FB200001F04EFCF9E70000F8B52A4C94
:104CE0002A49200001F0E3FE46222949294800F024
:104CF00037FBFFF703FA2849200001F0D8FE00F047
:104D00005FFB050030283ED02449200001F0CFFE93
:104D100000F056FB070006002149200001F0C7FE05
:104D20003900200001F0C7FE28003138303E03284A
:104D3000D5D803F079FE020D161F1A49200001F0A4
:104D4000B6FE0023022231001748FFF7E9F9C6E753
:104D50001649200001F0ABFE002302223100144866
:104D6000F3E71449200001F0A2FE002302223100E3
:104D70001148EAE71149200001F099FE00230222C0
:104D800031000F48E1E7F8BD840A002090A100003F
:104D9000102700006C550000A9A10000FBA1000035
:104DA0000CA2000016A2000070A0000026A20000C5
:104DB000F09D00002EA20000B0A0000040A2000064
:104DC000309F0000F0B50600002489B01C4F380069
:104DD00002F082FA0028F9D0380002F0B9FAFF2375
:104DE0000340621C303B0192092B11D8002303AD14
:104DF0002870290038006B7001F059FE2800022C41
:104E000013D0032C15D0012C06D003F08DFFF060D9
:104E1000019C042CDAD10FE003F086FF0949B06051
:104E2000380001F044FE019CD0E703F07DFF706084
:104E3000F9E703F079FF3060300009B0F0BDC046FB
:104E4000840A00208EA100001FB5FFF760F900F072
:104E50003BFA0849084801F02AFE6846FFF7B2FF0E
:104E6000009B019A02990398FFF7B4F9FFF7A6FA9D
:104E7000FFF72AFF70A10000840A00207FB50B49CC
:104E80000B4801F014FE02A8FFF79CFF039B0A20C9
:104E900019004143029BC918059B58430193049B89
:104EA000C018FFF7FFF907B000BDC0464AA20000D6
:104EB000840A002010B500F0B5FA732811D006D886
:104EC00069280BD009490A4801F0F1FD08E074286F
:104ED00009D07A28F6D100F0F7F901E0FFF7FEFEDD
:104EE00010BDFFF7B1FFFFF7C9FFF9E760A20000AF
:104EF000840A00200B0010B511008365032200F026
:104F00006BFF10BD10B500F0D3FF10BD10B5836D61
:104F1000032200F061FF10BD030037B56A331A7831
:104F2000023B0D001988002304000093603300F059
:104F30000FFF23000122543311001B78200000F0E2
:104F4000A7FE0123626E216E200000F091FF290070
:104F5000200000F0ADFF37BD302359435A43264BA4
:104F600010B501664266994203D800236830038079
:104F700010BD540844664C0804669C4203D8802344
:104F800068305B00F3E7940844668C0804669C4232
:104F900003D8802368309B00E9E7D4084466CC0836
:104FA00004669C4202D86830C023F4E714094466C2
:104FB0000C0904669C4203D880236830DB00D6E7E6
:104FC000940944668C0904669C4202D86830A02388
:104FD000F4E7140A44660C0A04669C4202D868305E
:104FE000C023EBE7920A890A426601669942BFD85C
:104FF0006830E023E2E7C046FFFF0000F7B5040099
:105000001F000AAB089D01921E7800F03EFE6A4622
:105010002300127954331F70E5659A75099B6A085D
:10502000013300D0099A29002000FFF795FF3100D5
:105030002000FFF771FF2000FEBDF8B504001D0041
:1050400006AB17001E7800F020FE230000226A3312
:10505000A76529001A7020006A08FFF77DFF20006D
:105060000121FFF759FF31002000A36D032200F05A
:10507000B3FE2000F8BD10B504000A00C16DFFF7B3
:105080006BFF0123626E216E200000F0F1FE10BD67
:1050900010B504000100072001F038FC014B1C6032
:1050A00010BDC046A003002010B50400010006207A
:1050B00001F02CFC014B1C6010BDC046A403002075
:1050C00010B5092001F04EFC431E9841C0B210BD3E
:1050D00010B50A2001F046FC431E9841C0B210BD35
:1050E00010B50121082001F011FC10BD404BF7B5AF
:1050F0000F00984237DC0023C40F2418641001937A
:105100000026651EB54234DC30200321784303F0CD
:1051100095FC00240600019BA3424BD1A02430261D
:10512000002D00DC60E00121022001F0EFFB0121F5
:10513000032001F0EBFB2300013BFDD10021022005
:1051400001F0E4FB0320002101F0E0FB294AAB0061
:10515000D058002805D07043032103F06FFC0138BC
:10516000FDD1013DDCE7C824234BA400C318019303
:10517000C6E70121022001F0C9FB0121032001F053
:10518000C5FBA023013BFDD10021022001F0BEFBA5
:105190000320002101F0BAFB164AB300D0580028C2
:1051A00006D030230321584303F048FC0138FDD1D9
:1051B0000136A6E70121022001F0A8FB012103200E
:1051C00001F0A4FBA023013BFDD10021022001F04E
:1051D0009DFB0021032001F099FB002F02D033003A
:1051E000013BFDD1013496E7FFF77AFFF7BDC046DA
:1051F0003F060000F4900000C0F9FFFF084B9A4200
:1052000006DCD30F9A180023521002600B6070471F
:10521000C8239B000360034BD2180A60F7E7C0461F
:105220003F060000C0F9FFFF70B50D00040000202C
:10523000FFF72EFF0020FFF737FF044A290013680D
:1052400020001B1B1360FFF751FF70BDAC03002053
:1052500070B50D0004000120FFF71AFF0120FFF7D1
:1052600023FF044A2900136820001B191360FFF76D
:105270003DFF70BDAC03002070B50D00040001209F
:10528000FFF706FF0020FFF70FFF044A290013680D
:1052900020001B191360FFF729FF70BDA803002031
:1052A00070B50D0004000020FFF7F2FE0120FFF7AB
:1052B000FBFE044A2900136820001B1B1360FFF744
:1052C00015FF70BDA803002010B51E4C1E4920001C
:1052D00001F0EDFBFEF71BFF64211C48FFF7B8FF50
:1052E000FFF7EEFE002804D064210A20FFF7D8FF64
:1052F000F6E7FFF7E5FE002804D164210A30FFF746
:10530000BBFFF6E71249200001F0D1FBFFF7E0FEFA
:10531000002804D064210A20FFF786FFF6E7FFF794
:10532000D7FE002804D164210A30FFF791FFF6E789
:105330000849200001F0BBFB0023074A1360074A1D
:10534000136010BD840A002080A20000DC0500006C
:1053500089A2000097A20000A8030020AC0300204F
:10536000F0B5154E154C85B00392336822681B1AB0
:105370000700501AC21A0D0001921B18029318D58B
:105380000120FFF785FE019B0120002B00DB0020A0
:10539000FFF78AFE019BDA179918029B5140DA1732
:1053A00098185040039AFFF775FB3760256005B0E9
:1053B000F0BD0020E5E7C046A8030020AC030020B4
:1053C00070B50A4C200001F087FF0028F9D02000BA
:1053D00001F082FF002806DD200001F0B9FFC5B210
:1053E000200001F089FF280070BDC046840A00201B
:1053F00010B5094C1B21200001F071FE0749200067
:1054000001F055FB1B21200001F069FE044920003A
:1054100001F04DFB10BDC046840A0020A5A200008B
:10542000A9A2000010B5FFF7E3FF104C10492000BF
:1054300001F039FB0F49200001F039FB0E49200033
:1054400001F035FB0D49200001F02DFB0C49200037
:1054500001F029FB0B49200001F025FB0A4920003F
:1054600001F021FBFFF7ACFF10BDC046840A00200D
:10547000ACA20000D49D0000E5A70000D2A200006D
:10548000F1A2000002A3000010A3000070B50023E9
:1054900004000D4E92B25D1CE8B2814204D9F05C6A
:1054A0002B00121892B2F6E7022903D9A30701D103
:1054B000013292B26E20FF306043E31C9B10013832
:1054C0001818101880B270BD22A300000378303B7A
:1054D000DBB2092B00D900230A225343407830382D
:1054E000C018C0B270470000F8B5264B0400CD18B4
:1054F00028003C2103F028FB280061713C2103F0C7
:105500009DFA3C2103F020FB2171E12128000901D3
:1055100003F094FA182103F017FB2800E1701A49F0
:1055200003F08CFA00230326184D80B223702278F2
:10553000110031404B424B41DBB21F006D37FF374A
:10554000874205DAEB1AC018013280B22270EEE70A
:1055500001230F4D63706278AB18013B1B78002963
:1055600003D1022A01D10133DBB29BB2834204D8BA
:10557000C01A013280B26270EDE70130A0702000E5
:10558000F8BDC04680BC92C78051010093FEFFFF6A
:1055900022A30000F0B505AC2678084F06AC2578AC
:1055A00007AC2478B94202D9054FC91989B2C6702F
:1055B00005710170427083704471F0BDCF07000027
:1055C00030F8FFFF0B7803704B7843708B78837053
:1055D000CB78C3700B7903714B794371704770B509
:1055E0000400080009300D001600FFF76FFF20705F
:1055F00028784138122815D803F016FA2814143ADE
:1056000014261414140A14142E38361414143400E6
:105610006A780123612A04D0AB786E3B5A1E93410D
:1056200006336370281DFFF751FFA0703000FFF7AD
:105630004DFFE070F01CFFF749FF2071B01DFFF730
:1056400045FF6071200070BD0223EAE7AA780423B9
:10565000722AE6D0DB18E4E7AA780323722AE0D0A6
:105660000233DEE70923DCE70A23DAE70B23D8E776
:105670000C23D6E710B50400827841780078FFF754
:1056800005FF030018205843E3782279C0183C2313
:105690005843801858436379C018014BC01810BD97
:1056A00080436D3810B5024800F04EF9012010BD5E
:1056B000B0030020F8B50E00334C6821200000F044
:1056C00063F90321200000F0BCF977790A21380042
:1056D00003F0B4F90625010069437918C9B2200026
:1056E00000F0AFF937790A21380003F0A7F901007B
:1056F00069437918C9B2200000F0A3F9F7780A21AC
:10570000380003F09BF9010069437918C9B2200001
:1057100000F097F9B7780A21380003F08FF90100FB
:1057200069437918C9B2200000F08BF900212000EC
:1057300000F087F977780A21380003F07FF901003B
:1057400069437918C9B2200000F07BF936780A2144
:10575000300003F073F945437519E9B2200000F0F9
:1057600070F9200000F0CAF92000682100F00CF95F
:105770000221200000F065F90021200000F061F90D
:10578000200000F0BBF9F8BDB003002010B50D4CAF
:105790006821200000F0F8F80221200000F051F903
:1057A000200000F0ABF901226821200000F044F94C
:1057B000200000F0A8F9E0231840E038431E98418B
:1057C000C0B210BDB0030020F0B5304C87B0060069
:1057D0006821200000F0D8F80321200000F031F902
:1057E000200000F08BF907226821200000F024F946
:1057F000200000F088F97F23062518406D42031130
:105800006B43C018C3B22000059300F07CF90F274A
:1058100003113B406B431818C3B22000049300F0FF
:1058200072F903113B406B431818C3B22000039375
:1058300000F069F903113B406B431818C3B2200014
:10584000029300F060F9200000F05DF903113B4085
:105850006B431818C3B22000019300F054F90311F0
:105860001F406B461B797D4373706B461B7A28186B
:10587000B3706B461B7B3070F3706B461B7C300043
:1058800033716B461B7D737107B0F0BDB003002010
:1058900000207047F8B505000E0017000024BC4238
:1058A00008D02B68315D1B6828009847002801D07C
:1058B0000134F4E72000F8BD70470300FC33196A97
:1058C000DA69914203D01B6AC018007E704701203C
:1058D0004042FBE70300FC33D8691B6AC01A01D5BC
:1058E0000130FF3070470000F7B50193FA2380269E
:1058F000002504009B008360124B760008330F00E4
:1059000045602900009203603200183003F053FA1A
:1059100023002000FC332130DD6132001D622900AC
:10592000FF3003F048FA87239B00E3185D609D6019
:105930006B461B78276123756B461B79A575200084
:105940006375FEBD30A3000070B5060018250C4934
:10595000006901F059FB306901F0F0F92B000821D2
:10596000307D084C4343E318595601F013F80821E1
:10597000707D45436419615601F00CF870BDC04656
:10598000A086010064A300008A2300229B00C1546A
:105990000C3BC3185A609A6001238375704702005C
:1059A00010B5FC32536894680133DBB29C4202D0DC
:1059B00054680155536010BDF7B500240500170069
:1059C00001932000A24232D02B00FC33DC611C6228
:1059D0000122286901F0F0F90600A04226D02B0030
:1059E00018330093286901F074FA0134010000981B
:1059F000FFF7D5FF2869BC420CD001F048FA002817
:105A000007D0286901F0B8F90221286901F0BEF930
:105A1000E8E70600286901F0A6F9019B002B07D0F2
:105A2000002E07D00321286901F0B0F9E0B2FEBDD5
:105A3000002EFBD1013CF9E710B50123FFF7BCFFB5
:105A400010BD002210B5837D93420DD087239B00AB
:105A5000C4186368A4680133DBB2A34204D02130C8
:105A6000FF30FFF79CFF0122100010BD0300FC3344
:105A700099685A68914206D09A68805C9A680132A7
:105A8000D2B29A60704701204042FBE700228A238D
:105A900070B59B00827505000E00C15C006901F0C5
:105AA0008BF9002806D10321286901F06FF902243F
:105AB000200070BD872328009B00EA185368946873
:105AC0002130FF301C1B01D50134FF34002C0ED0D7
:105AD0002C69FFF7CBFFC1B2200001F0AFF900281D
:105AE000E8D10321286901F051F90324E0E7002EF1
:105AF000DED00321286901F049F9D9E710B5012169
:105B0000FFF7C4FF10BD10B51830FFF7AFFF10BD91
:105B100070B50400006901F0B1F9002814D02069C3
:105B200001F0C3F9002810D0206901F025F9032104
:105B3000206901F02BF98C239B00E558002D39D109
:105B40000023FC34E361236270BD206901F0B7F9E2
:105B5000002809D0206901F0ADF9002804D020699F
:105B600001F0B2F90028DFD0206901F0A8F900287F
:105B700026D1206901F094F90028E5D0206901F0D0
:105B8000A3F9002837D087239B00E2185368926856
:105B90009B1A01D50133FF33FF21002B05D02000D4
:105BA0002130FF30FFF762FFC1B2206901F058F9E0
:105BB000A075C9E7236820001B699847A847BFE77D
:105BC000206901F0D9F82069032101F0DFF820698C
:105BD00001F07AF90028B7D0872300229B00E31850
:105BE0005A609A600123A3758B239B00E35893426C
:105BF000AAD09847A8E72200FC32D369126A013381
:105C0000DBB22069934206D101F0ADF8032120698F
:105C100001F0BCF898E701F05CF9010020001830B1
:105C2000FFF7BDFE206901F0A7F8EFE710B50248C5
:105C3000FFF76EFF10BDC046B003002010B5112362
:105C4000102202490248FFF74FFE10BD700A0020E3
:105C5000B003002010B54378042B06D143182E332F
:105C60001A70383000F05CFA10BD002B05D10B0023
:105C700014335B00C318DA80F3E7082BF1D10B0073
:105C80000A339B00C3189A60EBE70170704700006D
:105C9000F0B587B08C4603A90E002C4C0191A2CC24
:105CA000A2C60026012A1AD861460478B1420DD155
:105CB0000C235A4382181175019B033CA400021D5A
:105CC0001959383000F020F9012608E0032C15D1CD
:105CD000002A25D10A2B1FD00E21022B05D030001F
:105CE00007B0F0BD0F21052BF9D10C235A430B3B14
:105CF0008218137503339161D361DDE7042C1BD146
:105D0000002A11D1142B09D02821192BEDD0E6E758
:105D100029211A2BE9D0E2E71221E6E71621E4E770
:105D20000C2BDFD11321E0E7152BF1D11721DCE794
:105D3000142BD4D12B21D8E7052CD0D1002AF7D1B0
:105D400016002A21152BCAD1CFE7C04654A3000064
:105D5000F0B589B00EAC02932478037801910394D6
:105D60000093052B33D805AE37001A4C2ACC2AC72E
:105D70000024431C42700471847104818472848104
:105D800044718473C47304748474447404758461AA
:105D9000C461071DDC7744628462C4620486042AFD
:105DA00003D10400FF232D3423706B469B88009D94
:105DB00003816B461B7A033D83726B461B7BAD00F0
:105DC000827183743A003830715900F09DF809B03F
:105DD000F0BDC04654A3000070B5040005001600D5
:105DE0003834002925D01900200000F0D5F9A86B1F
:105DF00000F072F81F22194B1B5C13401E3A110071
:105E00009940174B1960637E022E05D10F32134360
:105E10006376AB6B5A7370BDA96B032E04D120223D
:105E2000134363764A73F6E7B24013436376D2B204
:105E3000F8E7826B1021022E02D0032E05D120211B
:105E40001173637E8B436376E5E70123B340D9B2D8
:105E50001173627E9A436276DDE7C04660A300005C
:105E600000E100E010B5012901D8FFF7F3FE10BDF5
:105E700070B51E00437804001500042B0BD10300FD
:105E80002D331970383000F070F92A0031002000ED
:105E9000FFF7E8FF70BD08229343FBD10A00190009
:105EA000FFF7D8FE2A0001212000FFF7D3FEF1E71B
:105EB000836B002908D0DA7B52B2002AFBDB022276
:105EC00019880A431A807047DA7B52B2002AFBDB3A
:105ED00002211A888A43F5E7084A0300904209D054
:105EE000074A904208D0074A0020934201D102306D
:105EF000C0B270470020FBE70120F9E7002C004208
:105F00000030004200340042F0B5060087B00800BF
:105F100014000D00FFF7E0FF6A467D4B0700138178
:105F20001C2393727B4B049380239B019382002359
:105F3000B360F360336173613383774B8200D65073
:105F40003560A378082B03D11720FA0700D4CAE0E4
:105F5000012233712B880520134200D0C3E0EB7B74
:105F60001730DB0600D5BEE002212B880B4000D0A5
:105F7000B9E0217C002909D003A9CB70A3698A70FC
:105F80000B7063694A70D8B200F012FA237F002BBD
:105F90000BD00123002203A98B704B70236ACA70B7
:105FA000626AD8B20A7000F003FA7A009446684632
:105FB000102280186246594B825A196A0A431A62A3
:105FC000A278082A0AD1791C4A00944610216A4610
:105FD00052186146186A525A02431A62237801A97C
:105FE0000B7008226B469B18DF5D380000F05EF9ED
:105FF000380000F01FF9A379A278A1881A432389F9
:106000000B431A436378002B02D080231B011A43F1
:106010003368D97B49B20029FBDB2A80627B511EA1
:106020008A41A17B9200002901D001210A43D97B3A
:1060300049B20029FBDBFF212971002A04D0D97B5A
:1060400049B20029FBDB6A71E27AA17A002A01D009
:1060500010221143227B002A01D020221143DA7B37
:1060600052B2002AFBDBA971DA7B52B2002AFBDBB9
:106070003279042A17D0082A37D01720002A32D1C3
:10608000DA7B52B2002AFBDB228D2A82DA7B52B203
:10609000002AFBDB628D2A83DA7B52B2002AFBDB0B
:1060A000A38D6B831EE0DA7B52B2002AFBDB220059
:1060B000283212782A74DA7B52B2002AFBDB2200E3
:1060C000293212782A75DA7B52B2002AFBDB2200D1
:1060D0002A3212782A76DA7B52B2002AFBDB2B3482
:1060E00023786B76002007B0F0BDDA7B52B2002A2D
:1060F000FBDBA26A2A61DA7B52B2002AFBDBE26A8E
:10610000AA61DA7B52B2002AFBDB236BEB61E9E781
:106110001B1C000000080010B41000200004004008
:1061200010B50468E37B5BB2002BFBDB0379042B27
:106130000CD0082B12D01720002B0ED117200129CC
:106140000BD80C3192B249000A5305E017200129FF
:1061500003D8D2B261180A76002010BD1720012999
:10616000FBD8063189000A51F6E70368DA7B52B2A0
:10617000002AFBDB0079042806D0082808D0002874
:1061800008D189B219837047C9B219750020FAE79E
:106190009961FBE71720F6E7931C9B001950017EDD
:1061A0001023022A04D02023032A01D00123934084
:1061B0000B4303760020704770B50126144B800016
:1061C000C4582368227E657E9B7B15401D40354266
:1061D00004D0A3682000984723689E7302263542A6
:1061E00004D0E3682000984723689E731026354248
:1061F00004D023692000984723689E7320263542E7
:1062000004D063692000984723689E7370BDC04620
:10621000B410002010B50020FFF7CEFF10BD10B560
:106220000120FFF7C9FF10BD10B50220FFF7C4FF22
:1062300010BD000010B5040000F046F8054B064AFA
:106240001C7080235188DB010B43538000F056F80B
:1062500010BDC046020C0040000C004010B5040008
:1062600000F032F80D4B0E4A1C700E4B0E4C588845
:1062700059880005114059805988000F21405980E4
:1062800011008022D2015C881442FCD15A8800029D
:106290000A4002435A8000F031F810BD020C004061
:1062A000FFF0FFFF000C0040FFBFFFFF10B50C78B0
:1062B00024020443FFF7D2FF014BA4B25C8010BD5F
:1062C000000C004070470000094B196800290BD1F1
:1062D000EFF31080074A002805D172B6BFF35F8F35
:1062E00005490870012111701A6801321A6070475F
:1062F000E4050020E805002000000020084B1A6893
:10630000013A1A601B68002B09D1064B1B78002B41
:1063100005D00122044B1A70BFF35F8F62B670473D
:10632000E4050020E805002000000020F0B5D57845
:10633000002D35D114782B00802C03D08023240627
:106340005B022343547802262700B74306D1967890
:10635000002E22D18026B60233434160013C012C3D
:1063600001D8124C2340A0248EB2E40534431C43D0
:106370008462D0240E0C240634431C438462002D16
:106380000AD15B0303D59378012B0CD1816153783B
:10639000013B012B00D88160F0BDC026F602DBE78F
:1063A00041600023DFE74161F1E7C046FFFFFBFFEB
:1063B00010B503000A004409C1090020814202D13E
:1063C0000449E00140181F210B401E399940FFF796
:1063D000ADFF10BD0044004110B5024802F013FAB1
:1063E00010BDC0462808002010B5024802F00BFA84
:1063F00010BDC046EC050020F7B501240326154F5B
:106400001549380000F004FC1449154800F000FC60
:106410001449154800F0FCFB1449154800F0F8FB3E
:106420001449154800F0F4FB144D1549280000F0FC
:10643000EFFB39000096230001940022114802F07E
:1064400077F9009629000194232324220E4802F0B4
:106450006FF9F7BD640A002000080042000C0042FA
:10646000680A0020001000426C0A0020001400425C
:10647000700A002000180042740A0020780A0020E8
:10648000001C004228080020EC050020FEE7000068
:10649000034B10B51B68002B00D0984710BDC046B9
:1064A0007C0A002070B50F490F4CA14204D100F0C6
:1064B00087F802F091FAFEE70C4D00238D42F6D0EA
:1064C000CA18E818A24205D3094B8242EFD0094905
:1064D000002204E0006804331060F1E704C38B423B
:1064E000FCD3E4E7000000200C020020D8A9000043
:1064F0000C020020C410002010B500F05EF8002847
:1065000001D100F04FF810BD014B18607047C04634
:106510007C0A0020F7B51348012284461249134C27
:106520008E68636805689B0E1340019288686268F4
:10653000019F920E3A4067463F6893420ED1BD429A
:106540000CD186420AD35B19FA254868AD00861B38
:1065500007486B437043000DC018FEBD3D0013009B
:106560000600E3E7800A002010E000E000ED00E014
:106570005555000070B5041E10D0FFF7CBFF050085
:1065800000F01AF8FFF7C6FF054B401B9842F7D9F9
:10659000FA23013C9B00ED18002CF3D170BDC046DE
:1065A000E703000010B5034A13680133136000F0DD
:1065B000F3FA10BD800A00207047002070470000E9
:1065C0001E2270B546484749436893431C3A13431B
:1065D000436008238C6923438B61434C434B9C826B
:1065E0009C8A14439C82DC681442FCD00124404AFB
:1065F00014701578254203D055786DB2002DF8DB64
:1066000001249460547864B2002CFBDB394C546054
:10661000547864B2002CFBDB8224E401548054786B
:1066200064B2002CFBDB02249C840E34DD6825421E
:10663000FCD0314CDC621024DD682542FCD09D8CFE
:106640002E4C2C439C841024DD682542FCD002246F
:106650009D8C80262C439C844024DD683542FCD0F0
:10666000DD682542F9D01024DD682542FCD00024E5
:106670009460547864B2002CFBDB214C5460547855
:1066800064B2002CFBDB1C6A1E4D2C4080251C6272
:106690001C6AAC431C62032393601B4B536053780A
:1066A0005BB2002BFBDB0023FF240B72174A4B72FB
:1066B0008B72CB72164B1A60164B174A1B68116807
:1066C0009A065B01C90E2340520F12020B4313437B
:1066D000124A1385802342681343436070BDC0464D
:1066E00000400041000400400C060000000800408B
:1066F000000C004001050100B905FF7D040A0000FF
:1067000000070300FFFCFFFF03060100006CDC0232
:1067100004000020246080002060800000400042CF
:10672000FA21314B10B51868890002F087F92F4B18
:106730000138984256D82E492E4A4860C020136A24
:1067400000061B021B0A03431362002407238C600C
:106750000B608021136A09061B021B0A0B4313629C
:10676000FC22254B196A0A431A62FC22196A92011B
:106770000A431A62A022196AD2020A431A6220004E
:106780000021013400F076F8132CF8D11B4B1C00CB
:106790005A7852B2002AFBDB194A5A80194B1A0068
:1067A000597EC9090129FBD0E421C90099803F2104
:1067B000D970537EDB09012BFBD0C02300205B0185
:1067C0001361907000F024F863785BB2002BFBDB60
:1067D0000D4B0E4A6380D379DB09012BFBD041239B
:1067E000537010BDFEE7C04604000020FFFFFF000D
:1067F00010E000E000ED00E000040040000C00406C
:106800001E400000004000422140000000480042BD
:10681000164A00B51300517EC9090129FBD0013881
:10682000042816D81969124A0A400F211A615A78A9
:106830008A4302F0F9F80308060B03001100012255
:106840000A435A7000BD11000322F9E71100022229
:10685000F6E7F02311691B050B430F2113615378F1
:106860008B43190002230B435370EBE700400042B7
:10687000FFFFFFF0182330B51D000400454308203A
:10688000204A55192856013014D0032912D808007F
:106890006343D156D31802F0C7F802280E1B58687C
:1068A000CB010221184A9B181A184032117001229C
:1068B00082405A6030BD5868CB010621124A9B18AD
:1068C0001A1840321170012282405A609A61F1E731
:1068D0005868CB0106210C4A9B181A1840321170D7
:1068E000012282405A605A61E4E75868CB010221D4
:1068F000054A9B181A1840321170012282409A6092
:10690000D8E7C04664A30000004400411823F0B556
:1069100008245843114A13181C5701341BD0012670
:1069200035005F688356BD400D4ADB019A189068B8
:1069300005420BD10C00601E8441D2194032107800
:1069400034400336A400B04320431070044A9B181F
:10695000002901D15D61F0BD9D61FCE764A30000E9
:1069600000440041182310B5082443430749002080
:10697000CA181457013408D05B560549DB015B186F
:10698000186A5368D8400123184010BD64A3000062
:106990000044004118224243F8B52C4E0300B218BF
:1069A000127A52B2140001320ED0481C00240C2876
:1069B0000AD802F039F8071F1F1F1F1F1F1F1F0BC8
:1069C0000B0B0B00012464422000F8BD092905D1FE
:1069D00000211800FFF74EFF0024F5E70A2901D136
:1069E0000839F6E700240B29EED10A391800FFF721
:1069F00041FFE9E718225343F218556801202C00A3
:106A0000F356134ADB016E089B18C9B204409E1965
:106A1000002C0DD00F24303632780901224011436A
:106A2000C9B25B19317040331A7810431870D3E73C
:106A300032000F27303216785B19BE433143117094
:106A400040331A7810431870BEE7C04664A30000B4
:106A500000440041F7B506000D000C008B180193AF
:106A6000019B671B9C4207D0336821781B6830006C
:106A7000984701340028F3D13800FEBD70B50400FA
:106A800008000D0002F05AFA2368020029005B6832
:106A90002000984770BD10B50B1E02D0FFF7EEFF27
:106AA0000300180010BD10B5FFF7F5FF10BD10B5BD
:106AB000FFF7F1FF10BD10B503681B68984710BDC4
:106AC00010B50249FFF7DAFF10BDC046E4A7000089
:106AD00070B50400FFF7DFFF05002000FFF7F0FFAF
:106AE000401970BDF0B58BB06B4615000022053320
:106AF0000600DA770800012D00D80A2509AC290024
:106B000002F022F8CAB2130037330700DBB20929BA
:106B100002D813003033DBB2013C2370002FEED1DA
:106B200021003000FFF7B7FF0BB0F0BDF8B506004D
:106B30000C00151E04D10368C9B21B689847F8BD44
:106B40000A2A0CD100290BDA2D21FFF7B4FF61428C
:106B500007002A003000FFF7C5FF3818EFE7D2B270
:106B600021003000FFF7BEFFE9E710B5FFF7DEFFB9
:106B700010BD000010B50400FFF7A4FB014B1C6022
:106B800010BDC046080000200122024B52421A608C
:106B90007047C04608000020164A10B51368591CFB
:106BA00026D0013B1360002B22D172B6124B134A40
:106BB0000433934213D9124A01211000147D0C4270
:106BC000FCD02021148BFF319B085B0021431183F3
:106BD000D3610C4B13800123027D1A42FCD0BFF31A
:106BE0004F8F094B094ADA60BFF34F8FC046FDE76C
:106BF00010BDC04608000020004000000302000055
:106C00000040004102A5FFFF00ED00E00400FA058E
:106C1000016070479446F0B59E1E721E9641624612
:106C2000056892072F6836063A4332432A600725E3
:106C300005AC24780068A40129402143426800245F
:106C4000022B00D05C03114321434160F0BD30B5FD
:106C5000C0250368AD031C6812052A402243C024E6
:106C60000904A40221401143196003685A681443BF
:106C70005C6030BD0123026811680B431360036838
:106C80001A68D207FCD4DA69D207F9D47047022314
:106C9000026811680B4313600268D3699B07FCD438
:106CA000704703681A7ED20702D41A7E9207FCD579
:106CB0007047002203685A8370470368187E4007B4
:106CC000C00F70470368187EC009704780230268B0
:106CD0005B42117E0B43137670470368588B800725
:106CE000C00F704702230268518B0B4353837047D8
:106CF0000368187EC007C00F70470368188DC0B2C4
:106D0000704703681A7ED207FCD589B20120198525
:106D10007047012203689A757047012203681A754B
:106D200070470123026811680B43136003681A68F7
:106D3000D207FCD4DA69D207F9D47047022302687B
:106D400011680B4313600368DA699207FCD43021A1
:106D50005A8B8A43110010220A435A830268D3696E
:106D60005B07FCD4704780230268DB02116851681E
:106D70000B43536070470000036803491A685A6860
:106D80000A405A607047C046FFFFFBFF032230B540
:106D9000036811401C68074D5A6809042A40E4063C
:106DA0001143640F5960052C03D10268D3695B0756
:106DB000FCD430BDFFFFFCFF70B5056804006B8B91
:106DC0009B069B0F022B0DD06B8B00209B069B0F0D
:106DD000032B32D06B8B9B0704D56B8B9B069B0FD1
:106DE000012B2AD16B6A49001143DB0AC9B2DB02CD
:106DF0000B436B622368002A13D11A7ED207FCD59D
:106E00005B8B9B069B0F022B04D0490800222000BD
:106E1000FFF7D2FF2368588B4007C30F012058406B
:106E20000BE0187E8007C00FF4D11A7ED207F8D588
:106E3000C022596892020A435A6070BD0368283321
:106E400019700368187EC007C00F03D15A8BD20790
:106E5000F8D57047588B4007C30F01205840F8E71A
:106E6000036828331970036800201A7E520704D57E
:106E7000588B01234007C00F5840704703681868BB
:106E8000C006400F043843425841C0B270470368FF
:106E9000588B8006800F023843425841C0B2704779
:106EA0000368187E4007C00F70470368187EC0074C
:106EB000C00F70470368588BC006C00F7047036847
:106EC000187E8007C00F70470368588B0007C00FFB
:106ED000704703681A68D206520F052A05D11A7E38
:106EE000920702D41A7ED207F9D528331878C0B297
:106EF000704700000368214A30B593422FD0204AE2
:106F000093422FD01F4A93422FD01F4A93422FD033
:106F10001E4A93422FD01E4A93421FD10E2319229C
:106F20000121032599401B48C024016099082B408A
:106F3000AB40FC359D4089000918A4000859A843BE
:106F4000C0259D402B0003430B518023DB011A43D6
:106F5000114B5A805A7852B2002AFBDB30BD09230C
:106F60001422DDE70A231522DAE70B231622D7E7DE
:106F70000C231722D4E70D231822D1E70008004282
:106F8000000C0042001000420014004200180042B1
:106F9000001C004200E100E0000C0040F8B50400D5
:106FA0000F0016001D00FFF7A5FF2000FFF762FE8F
:106FB0001C21BB000B4071072268090C0B431360B6
:106FC000842322689375012F1AD11021012E00D03D
:106FD00008390C4B69431868C00001F02FFD0722E7
:106FE000216802408B895203DB04DB0C13438B8145
:106FF000226803049089DB0C400B40031843908106
:10700000F8BDC04604000020F8B504000F00FFF7EB
:1070100071FF2000FFF785FE1422236879001A60B3
:107020000C4B25681E68300001F008FD0A49040079
:10703000300001F003FD7D23FA215843C90001F01F
:10704000FDFCFF23241AE868053C1C4098430443D8
:10705000EC60F8BD0400002040420F0000207047A3
:1070600070B50F26CB1D013902003240D5B22C007D
:1070700000093034092A00DD07341C70013B8B42C3
:10708000F2D170BD10B50C000B4B1868FFF7E8FF8C
:1070900021000A4B08311868FFF7E2FF2100084B76
:1070A00010311868FFF7DCFF2100064B1831186813
:1070B000FFF7D6FF202010BD0CA0800040A080006C
:1070C00044A0800048A0800008B4024B9C461038C1
:1070D00008BC60478570000070473F20704713B5BB
:1070E0006B460268D9710733546819000122A04722
:1070F00016BD000070B50A260B7892B06E440233BC
:1071000005000B703C220021300001F054FE39488C
:1071100001AC069038482421079006202077684665
:10712000364AA1742281364A364BA281FD3AFF3A93
:107130008018C177684623390630C1776846073022
:10714000C17702A8C1770720F27703260831694486
:10715000C87703A9CE7710212B366E4431700926EB
:1071600021851F3169440E700CA9053E0E70332134
:107170002380022369440B7006360DA90E70224944
:107180003536A1863B216E44307010A86274E277D8
:1071900002703D3269446A440B7013704021002232
:1071A000E37023716371A37341336B4421871970BA
:1071B0005A702B7DC039A370A37263770133DBB2A1
:1071C000A3776A7D0B200D0068441543C5773120F5
:1071D000684403703A23501C6B44187041230232F8
:1071E0000A436B441A7021004222084800F082FFD3
:1071F00012B070BD10010424020605240904000029
:1072000001020000080B000007050000EC0A002046
:1072100008B4024B9C46103808BC6047F57000006B
:1072200070B5027D0B790C0000259A420BD10B78CA
:107230004E78A12B09D1212E05D107221F492048C4
:1072400000F058FF0135280070BD212BFBD1202E06
:107250002BD1072219491A4800F082FE174B1A78E1
:107260005978090211439A7812041143DA78120608
:107270000A439621C9008A421DD1DB79DB071AD463
:10728000FA20FFF777FC00210D4801F03FF80125B7
:10729000232ED8D1E378A2781B021343094A002198
:1072A0000748136001F032F8CDE7222EEFD18A783B
:1072B000024BDA71D2E7FFF767FCE4E71000002029
:1072C000EC0A00200C00002008B4024B9C46103849
:1072D00008BC60472172000010B5417D006A013191
:1072E00000F068FD034B1B6801335A1E93411818C8
:1072F00010BDC0461800002010B5417D006A023163
:1073000000F06EFD10BD10B5417D006A023100F045
:1073100035FD10BD70B50D00417D04001300023134
:107320002A00006A00F030FE002801D101236360CA
:1073300070BD000010B5054C23685A1C04D10368C9
:107340005B69984703002060180010BD18000020FA
:10735000074A0300106810B5411C03D001235B42AB
:10736000136010BD597D186A013100F0BDFDF8E7CA
:10737000180000207047002070470000FA239B008F
:1073800010B583600F4B0022C38203002833836152
:107390000D4B04004260C261180044332361083081
:1073A000631D21622060DA778323A362813BE3625D
:1073B0008033236300F0AEF82100103100F07EF836
:1073C000200010BD03020000E8A70000022110B554
:1073D000094B1A68437D5B01D318FF339C7A214324
:1073E0009972437D0133DBB25B01D3180122FF3375
:1073F000997A0A439A7210BDA40F002070470000CA
:1074000010B502490248FFF7B9FF10BDEC0A002091
:10741000840A002070B50E0000254468002C0BD0B3
:10742000236831005B6820009847002802DB2D1894
:10743000E468F3E701256D42280070BD70B50D00CA
:107440004468002C08D0236829009B6820009847D6
:10745000002802D1E468F4E7200070BD70B50D008B
:1074600000264468002C09D02368290020001B69ED
:10747000984736182D18F6B2E468F3E730002C7000
:1074800070BD70B50D004468002C08D02368290039
:107490001B6820009847002802D1E468F4E7200028
:1074A00070BD70B50D004468002C06D02368200024
:1074B000DB6829009847E468F6E770BDF0B58C7981
:1074C000457803002A190020072A1FDC5A688242E7
:1074D00016D159601A78C8790A7112184D711A704C
:1074E00000220B4DD0B284420FD98F685878960095
:1074F000F75986000130775101325870F2E70200E7
:10750000D0680028FBD1D160E4E70120F0BDC0467F
:10751000C40A00200121064A10B5136805480B4033
:1075200004D18024640004804360116010BDC04613
:10753000B80A0020BC0A0020704710B5040001F012
:107540006FFA200010BD0000F0B5822919D1C3B236
:10755000294D5A01AA189169284C80010C40C0217C
:1075600089052143916126490833401870215061F3
:1075700028685B011A5C8A43110030220A431A54BE
:10758000F0BD0029FCD1C026C1B21B4C4B01E31851
:107590009A681A4DB6052A4032439A60194A80010A
:1075A00082185A600A000727246808325201115DC8
:1075B000B9430F000121394311559F6910493D40DE
:1075C00040182E439E6158617020115D8143080070
:1075D00010210143115599680B48A21808408021D9
:1075E0004903014399609968890B89039960402395
:1075F00011790B431371C3E7A40F0020FFFFFF8F26
:10760000180B0020D80C0020FF3F00F0EFF3108390
:1076100003600123436072B670470368002B02D1F8
:1076200062B6BFF36F8F7047F7B50600FC36B369DB
:107630000400002B18D1B2277F00C55D6846FFF714
:10764000E5FF019BEDB2013B02D3E55DEDB2FAE748
:1076500068460193FFF7E1FF002D01D10020FEBD38
:10766000706E336EC01AFAE76846FFF7CFFFD82274
:107670000025019B5200013B02D3A55CEDB2FAE765
:1076800068460193FFF7C9FF002DE7D0D6235B00C2
:10769000E058043BE358E5E710B54468FC30436923
:1076A0000B48DBB25A01A2189168083308408021C8
:1076B00049030143916091685B01890B89039160E3
:1076C0002268D318402219790A431A7110BDC046A6
:1076D000FF3F00F0F7B50500FC356B694268DBB28F
:1076E000190004000831106849014118C979C90717
:1076F00011D55B01D21893689B049B0C0CD1200020
:10770000FFF7CAFF63681A686B69DBB208335B0175
:10771000D3187F22DA71F7BDE969002923D16B669E
:10772000230001266933FF33EE6168465360B227B8
:10773000FFF76CFF7F00B221019BFF31013B5A1C18
:1077400038D0D822E6555200A25C581ED2B26254FC
:10775000625C8446002A04D120000193FFF79CFF5D
:10776000E9E76346EBE7D621490063500023EB616C
:1077700023001D33FF3353606846D826FFF746FFCA
:1077800001277600B221019BFF31013B5A1C11D029
:10779000B222A7555200A25C581ED2B26254625C5B
:1077A0008446002A04D120000193FFF775FFE9E722
:1077B0006346EBE768460193FFF72FFFA2E7F7B5B3
:1077C000060068463400FFF721FF0027FF22019BD7
:1077D000FC34013B0DD3E0682169884204DBE76893
:1077E0002069D71B3F18F4E72769E1687F1A013F3A
:1077F000EFE768460193FFF710FFA3696846002B87
:1078000052D1FFF703FFB221019B4900013B5A1CF3
:107810000CD0755C5A1EEDB2002D05D1684601935F
:10782000FFF7FBFE2800FEBD1300F0E7684601935A
:107830000025FFF7F2FEFF22236EBD4214D0616ED9
:10784000994211D9591CF3182166FF33587FE36818
:1078500021690133C0B213408B4203D0E168711833
:107860000872E3600135E7E7626E9A42DAD10023DD
:1078700023660133A3616846B224FFF7C7FE6400A4
:10788000B2220021019BFF32013B581CC6D031556A
:10789000B05C5F1E002805D0B15430000193FFF7A3
:1078A000FBFEEDE73B00F0E7FFF7B0FED821019BC0
:1078B0004900013B5A1C06D0755C5A1EEDB2002DE2
:1078C000ACD01300F6E768460193FFF7A6FED62377
:1078D000D4225B0000259C465200B358BD4203D021
:1078E00061467158994220D86246B2589A4299D15D
:1078F000D42200235200B3506846A361D824FFF776
:1079000085FE6400B2220021019BFF32013B581C1E
:1079100000D183E73155B05C5F1E002819D0B15407
:1079200030000193FFF7B8FEECE7591CB150FF217E
:10793000F3186933FF331878E368C0B201330B40A2
:1079400021698B4203D0E16871180872E360013548
:10795000C3E73B00DBE710B50400FFF730FF23006F
:10796000FC331969DA68914203D01B69E418207A64
:1079700010BD01204042FBE710B50400FC34FFF7C6
:107980001EFFE0682369C01A01D50130FF3010BD29
:10799000F0B585B0019200910500FFF710FF02A835
:1079A000FFF734FE01200024FF26039B40425A1EAD
:1079B000531C1FD02B00FC3301998C4218D2D9687C
:1079C0001F69C91B01D50131FF31002910D0196988
:1079D000DF688C460100BC4506D019691F6969182B
:1079E00001373740097A1F61009F39550134E3E7B9
:1079F000013ADDE702A80392FFF70FFE200005B071
:107A0000F0BD37B56B46DC1D00230D002370FFF77A
:107A100081FD2100FFF7FEFC2B68181828602078F4
:107A20003EBD0000F7B500244B4B012105001F208F
:107A30001C70FEF71FFF01211F20FEF767FF474B59
:107A400001211E201C70FEF715FF01211E20FEF7EC
:107A50005DFF2023424A0F20D1690B43D3610122ED
:107A600040490B7813430B703F4B197881431970D1
:107A700006211C78214319703C490C7822430A7076
:107A80001A7802401A70602219780A431A70384B2B
:107A9000384A5A805F78FF09FCD13748FEF734FD39
:107AA0000123364C364E2268300011780B43137098
:107AB00080223900520001F07EF922689378DB07BA
:107AC000FCD456621F262F4B1B68590B980C9B0148
:107AD000314030405B0FB14200D105211F2800D159
:107AE0000238072B00D1043B31408901178D0191E9
:107AF000254930400F40019939431185118D070008
:107B0000B143080038431085118D18031F4B0B40FB
:107B10007F21034313851378C1200B401370042386
:107B20002268800011780B430C211370226813899E
:107B30008B43174913810B581B021B0A0B508023E0
:107B40000B6011787E3B0B431370012300212B70D7
:107B50001048FFF753FCF7BD0D0B00200C0B002065
:107B600000040040584400413C4400415944004155
:107B7000000C00400640000065850000A40F0020B6
:107B8000A80F0020246080003FF8FFFFFF8FFFFF59
:107B900000E100E0840A00200078002810D00121D4
:107BA000084B1B681A898A431A810822198B0A43D9
:107BB0001A830422198B0A431A830022024B1A608B
:107BC0007047C046A40F00209C0F002010B50F4A3C
:107BD00093699B0B9B03936113680222FF331A7214
:107BE0009879823A02439A711A7A9207FCD57F24D7
:107BF000074A2140937A0800A343190080230143D8
:107C00009172917A5B420B43937210BDA40F0020D6
:107C10000050004110B50C00FFF77CFC2100FFF77D
:107C200030FC002804D1034A93699B0B9B039361AA
:107C300010BDC046A40F0020F7B50D00832A19D14E
:107C4000CBB2404C5A01A21891693F48AD0108409F
:107C5000C0218905014391613C4920686D1870215C
:107C6000083355615B011A5C8A43110040220A43C4
:107C70001A54F7BD022A5FD1354B8A00D05800282C
:107C800002D003685B699847DA20400000F0C4FE28
:107C9000802204002B4E2F4B4660036052000021CF
:107CA000083001F088F82200B2210023FC3249009C
:107CB000D3605561136113669361D3615366635456
:107CC000443163500431635004316354B221FF31B5
:107CD0006354FF202B0003405901019371188F68F2
:107CE000194BAD003B40C027BF051F438F600727DE
:107CF000019B366808335B01995DB9430F0003218E
:107D00003943995523005169666801401D33490183
:107D1000FF3371184B60636852691B68024052015F
:107D20009B1801221B18997A20000A439A72FFF7C8
:107D3000B3FC074BEC509CE711002800FFF704FC54
:107D400097E7C046A40F0020FFFFFF8F180B00200D
:107D5000F00A002048A8000070B505000124064B79
:107D6000A200D258002A06D0210028000134FFF7D3
:107D700063FF0A2CF3D170BDC40A00200B4BCAB2BA
:107D80000B488901C9185301C31859619969083210
:107D9000890B89039961036852019A180223D371F0
:107DA0005179823B0B4353717047C046180B00203A
:107DB000A40F0020084B8A00D05810B5002803D02B
:107DC00003689B68984710BDC9B2044B4901591814
:107DD00088688004800CF6E7F00A0020A40F0020D9
:107DE00010B50C00FFF7E6FF00280CD0064BE4B2FC
:107DF0001B68083464011C19802362795B421343B9
:107E000063710223E37110BDA40F0020F0B51C00C4
:107E1000304B85B01B6807000D000292002B55D037
:107E20002D4E3178C9B2002902D11E20FEF76EFD19
:107E300064233370294BAA00D058002808D0036867
:107E400022005B68029998470400200005B0F0BD4D
:107E500029003800FFF7AEFF844204D9290038001A
:107E6000FFF7A8FF04000121EBB21D4E03935B0155
:107E70000193F21893689B0B9B039360019A3368FC
:107E800002989B18FF335A7A0A435A72154BA9017C
:107E9000C918220000F086FF002CD6D02900380037
:107EA000FFF788FF0028D0D14021039B32680833B8
:107EB0005B01D3181879014319710121D971019B14
:107EC000D318FF339A7A0A439A72BEE701246442B8
:107ED000BBE7C0469C0F00200C0B0020F00A0020DE
:107EE000A40F0020D80C002013B56B46DC1D220027
:107EF0000123FFF78BFF012801D1207816BD012057
:107F00004042FBE770B5CBB2124A13485C018901CD
:107F10008918021951609168104D08330D40802175
:107F200049032943402591609168890B8903916039
:107F300001685A018A1816793543157195796D06CD
:107F4000FCD55B01C918CB79DB07FCD5001980682B
:107F5000C0B270BDD80C0020A40F0020FF3F00F07D
:107F600070B50D0000211400FFF7CCFFA04200D92E
:107F7000200000230349A34203D0CA5CEA54013322
:107F8000F9E770BDD80C0020F0B51E003F4B85B05E
:107F90001B680F000192002B3FD08023DB019E4223
:107FA0003BD83B4C2178C9B2002902D11F20FEF7F3
:107FB000ADFC642300252370364BBA01D31802931D
:107FC000002E2CD0344B1B680393FF233B401C0036
:107FD00000930834039B64011C19A379DB0921D0A9
:107FE0002E4B2F49186800F029FD2E4B17215843BE
:107FF00000F024FD2C4BE279920713D4DA5D002ABD
:1080000001D10138F7D20122DA55009B5A01224BE7
:108010009B189A69920B92039A6101256D42280080
:1080200005B0F0BD0022204B3400DA553F2E09D9AF
:10803000009B40245A01184B9B1880229969120614
:108040000A439A6122000199029800F0ABFE009B5E
:10805000A1045A01104B890C9B18029A2D195A61E0
:108060009A69361B920B92030A439A61009B039A0A
:1080700008335B01D3180222DA715979823A0A4334
:108080005A71019B1B1901939AE7C0469C0F00206F
:108090000D0B0020180B0020A40F0020040000206E
:1080A00040420F00701101000F0B002070B50D0051
:1080B0001C000D4BAE01F61811003000220000F03C
:1080C00071FEEDB209496D014D196E61AB69084A47
:1080D00020001340AB61AB69A2049B0B920C9B0385
:1080E0001343AB6170BDC046180B0020A40F0020E5
:1080F000FF3F00F0F7B5104B01901B780F00150003
:10810000002B0CD10D4B16001C78002C09D00C4E06
:108110000C4834882018641900F044FE348028008C
:10812000FEBD002EFBD03A19330000210198FFF765
:10813000BDFF2418361AF4E7980E0020990F00208E
:108140009A0F0020990E0020F8B50F0016000024A9
:10815000012A26D9100000F011FE0500380000F0B9
:10816000EDFE032302220130400028706B7096421E
:108170000DD9397800290AD0531CDBB20137A95434
:108180009E4203D00232EC54D2B2F0E73200290012
:108190000548FFF7AFFF441EA041C4B2280000F01D
:1081A000F7FD2000F8BDC046EC0A0020F0B5002421
:1081B000012685B0184B0F0069461E70050000941B
:1081C000FFF71FFC154B01A90B806A3BFF3BCB71EE
:1081D0005A330B72009B8C7109334B800E4B4E71DE
:1081E00008711C703A00092F0FD00D4F09223E7004
:1081F0000C4E280000943480FFF77CFF694628006D
:10820000FFF7FFFB328808493C702800FFF772FF38
:10821000012005B0F0BDC046980E00200902000004
:10822000990F00209A0F0020990E002070B5CE788B
:1082300092B005000C00022E0BD18B79C9792E4823
:1082400009021943FFF7B2FF411E8841C0B212B0C4
:1082500070BDFFF75FF92100FFF7F0F8002803D0A9
:10826000C117081AC00FF2E7012E0ED1E279A379E7
:1082700012021A432149112A3CD8D2B2002A39D01D
:108280002800FFF737FF0120E1E7032EDFD1A378B5
:10829000002B28D0022B08D1E279A37912021849C9
:1082A0001A432800FFF750FFD1E7012B05D1E279EF
:1082B000A37912021A431349F3E7032BC7D1010034
:1082C000412201A800F077FDFFF724F901A9FFF78B
:1082D000C5F8002805D0E279A37912021A4301A952
:1082E000DFE70378FFDEE279A37912021A43064939
:1082F000032AC2D90A78C3E7EC0A002080A800004C
:1083000064A8000078A8000074A80000CBB204495B
:108310005B01C9188B699B0B9B038B617047C0463F
:10832000A40F002037B5050048780C000B2810D8A2
:1083300000F07AFB061B0F2B0F404561494C5A5D3C
:10834000097801AA002906D1022311802800FFF72D
:10835000ADFE01203EBD00231380284B1B78012B6E
:1083600000D1137002230021F0E78A780023012A4C
:1083700003D101AA1380224BF0E7204A1370214A4F
:1083800093699B0B9B039361E3E78C78012C06D1E7
:1083900000211B4B01AA1C7011702300D6E701209D
:1083A000002CD7D1154B174A187093699B0B9B0370
:1083B0009361CFE789782800FFF708FCC9E7280018
:1083C000FFF734FFC6E701230F4ACCE70B78002004
:1083D000DB06BFD12800FFF7BFFCA2780A4B0B4891
:1083E0001A60FEF7F3FFCAE70123094ABBE78A7860
:1083F000074B1A60C3E70020ACE7C0460E0B002015
:10840000160B0020A40F00209C0F0020840A0020DF
:10841000A00F00204B4BF7B51E780500002E00D0B2
:108420007EE0494C23689A8B12070DD50822310053
:108430009A833000FFF788F810222368FF33997A77
:108440000A439A72414B1E6023689A8B52071FD5CC
:1084500004229A833E4A1378002B0AD01378013BFA
:10846000DBB213701378002B03D101211F20FEF71C
:108470004DFA384A1378002B0AD01378013BDBB24F
:1084800013701378002B03D101211E20FEF73EFA52
:108490002368FF331A7A920603D52022597A0A43B9
:1084A0005A721A7AD20623D5694608002A4AC0CAE7
:1084B000C0C0A268920B9203A26040225879024386
:1084C0005A7160230A7828001A422AD1FFF72AFF3E
:1084D0002368FF33002827D08022997952420A432B
:1084E0009A711A7A520603D54022597A0A435A726F
:1084F0007F2601252368FF331E722F00236808376B
:108500007F01DB19DB79002B07D0144BAA00D05870
:1085100000280DD003681B6898470135082DECD161
:10852000F7BDFFF777FBD3E720210D4A9171D8E71C
:10853000FEF7F0FF2900FEF7B4FF2368DF19FE7194
:10854000EBE7C046990F0020A40F00209C0F0020ED
:108550000D0B00200C0B0020D80C0020F00A00208E
:10856000FF50004110B50248FFF754FF10BDC04650
:10857000EC0A0020014B024A1A607047A40F002049
:10858000005000410120704710B50368014A1B6A82
:10859000984710BD130400000300FC33D9699A69A1
:1085A000914203D0DB69C018007D70470120404232
:1085B000FBE710B504000069FEF75CFB2200002316
:1085C000FC329361D36186229200A4186360A36099
:1085D00010BDF02001403039484248417047F02337
:1085E0001B011940802306209B0099420AD00133C9
:1085F000FF330130994205D0802302385B00994255
:1086000000D0002070470F2001400020012903D036
:108610000239481E8141481C704700008923F0B58B
:10862000182685B002919B000400C05C330008212D
:108630004343324D1700EB185956FEF7ABF9304B58
:108640000821E05C33004343EB185956FEF7A2F9CA
:108650002C4BE25C0393022A09D11133E05CFF2822
:1086600005D008214643AE197156FEF793F98A26C4
:10867000B600A05DFF2819D00121FEF7FBF81822F3
:10868000A35D21495A43AB56AD18DB0158188B2125
:10869000890060501D4901225B188C2189006350BC
:1086A00069688A408D21890062501A600122029B0C
:1086B00011002069FEF772FC39002000FFF78FFFE0
:1086C000390005002000FFF79EFF3900060020005A
:1086D000FFF77FFF33000090290020690122FEF799
:1086E00099FA0B4B2069E25C039BE15CFEF7AFFA61
:1086F0002069FEF7CCFA05B0F0BDC04664A30000C7
:1087000025020000270200001844004114440041E3
:1087100026020000802210B504005200002100F063
:108720004AFB23000022FC335A6020009A6010BDEF
:10873000F7B51D0008AB1B780400009309AB1B784C
:108740001600019300234360FA239B008360114BC2
:108750000F00083303601430FFF7DCFF20001D30EA
:10876000FF30FFF7D7FF89236A469B002761E65455
:10877000094B1278E554094B2000E2546A46084B35
:108780001279E2548A22293BFF3B9200A354103213
:10879000A354FEBD94A8000025020000260200009C
:1087A000270200000300FC3358689B68C01A01D5FB
:1087B0000130FF30704710B5040020001D30FF303D
:1087C000FFF7F0FF0028F8D12069FEF76AFA10BD24
:1087D00010B51430FFF7E6FF10BD0300FC335968F5
:1087E0009A68914204DB5A689868801AFF30704793
:1087F00098685B68C01A0138F9E710B51D30FF3082
:10880000FFF7EBFF10BD10B504000069FEF765FA35
:10881000002805D02069FEF770FA2069FEF762FA99
:108820002069FEF74AFA002820D02069FEF765FA91
:108830002200FC329369D1690133DBB28B4203D051
:1088400091696118087593618A239B00E35CFF2B93
:108850000CD020001430FFF7C0FF092806DC8B2362
:108860008D229B009200E358A2581A602069FEF7FF
:108870003FFA00281AD020001D30FF30FFF792FF8A
:10888000002822D086239B00E31899685A689142F9
:1088900018D08E219A684900A218515C9A6801325A
:1088A000D2B29A60C9B22069FEF72BFA2069FEF7AE
:1088B00009FA002805D02069FEF708FA2069FEF7BA
:1088C000F8F910BD01214942ECE72069FEF725FACD
:1088D000ECE7000070B5040000690D00FEF708FA2F
:1088E00000283ED1FF2686239B00E3185A6899682A
:1088F000013232408A4223D1EFF31083DB0710D4D8
:108900001E4B5B68DB05DB0DEDD0103B5BB2002B33
:1089100010DA0F221340083B9B08194A9B009B1852
:108920001B682069FEF7E4F90028DCD02000FFF77F
:108930006AFFD8E79B08C033124A9B009B58F0E7B8
:108940005A68013216409A68964205D08E215A68BC
:108950004900A21855545E602069FEF7DAF901203B
:1089600070BD20001D30FF30FFF71CFF0028B9D17B
:1089700029002069FEF7C5F9F1E7C04600ED00E0E7
:108980001CED00E000E100E0030070B5FC33D969A4
:108990009A69040091421AD0DA698218157DDA6961
:1089A0000132D2B2DA618A239B00E35CFF2B0CD048
:1089B00020001430FFF711FF0A2806DD8C238D22DA
:1089C0009B009200E358A2581A60280070BD012550
:1089D0006D42E8E77047000010B5FDF7A1FE00F01A
:1089E000A9F9FFF7F7FF0120FDF7C4FD084C2000AF
:1089F000FFF718F82000FFF7CFF8FCF733F9FCF782
:108A000059FA044B002BFAD000E000BFF7E7C0464C
:108A1000EC0A00200000000010B500F0AFF910BD16
:108A200010B500F0B5F910BD02B47146490849000F
:108A3000095C49008E4402BC7047C04600224308CE
:108A40008B4274D303098B425FD3030A8B4244D316
:108A5000030B8B4228D3030C8B420DD3FF22090258
:108A600012BA030C8B4202D31212090265D0030B17
:108A70008B4219D300E0090AC30B8B4201D3CB030D
:108A8000C01A5241830B8B4201D38B03C01A52414F
:108A9000430B8B4201D34B03C01A5241030B8B4251
:108AA00001D30B03C01A5241C30A8B4201D3CB023C
:108AB000C01A5241830A8B4201D38B02C01A524121
:108AC000430A8B4201D34B02C01A5241030A8B4224
:108AD00001D30B02C01A5241CDD2C3098B4201D33C
:108AE000CB01C01A524183098B4201D38B01C01ABA
:108AF000524143098B4201D34B01C01A5241030931
:108B00008B4201D30B01C01A5241C3088B4201D3DF
:108B1000CB00C01A524183088B4201D38B00C01A8C
:108B2000524143088B4201D34B00C01A5241411AB3
:108B300000D20146524110467047FFE701B50020C0
:108B400000F0F0F802BDC0460029F7D076E7704784
:108B500003460B437FD4002243088B4274D303099E
:108B60008B425FD3030A8B4244D3030B8B4228D33F
:108B7000030C8B420DD3FF22090212BA030C8B4265
:108B800002D31212090265D0030B8B4219D300E005
:108B9000090AC30B8B4201D3CB03C01A5241830B8A
:108BA0008B4201D38B03C01A5241430B8B4201D33A
:108BB0004B03C01A5241030B8B4201D30B03C01A63
:108BC0005241C30A8B4201D3CB02C01A5241830ADD
:108BD0008B4201D38B02C01A5241430A8B4201D30C
:108BE0004B02C01A5241030A8B4201D30B02C01A36
:108BF0005241CDD2C3098B4201D3CB01C01A52419D
:108C000083098B4201D38B01C01A524143098B4225
:108C100001D34B01C01A524103098B4201D30B010E
:108C2000C01A5241C3088B4201D3CB00C01A524133
:108C300083088B4201D38B00C01A524143088B42F8
:108C400001D34B00C01A5241411A00D20146524191
:108C5000104670475DE0CA0F00D04942031000D3B0
:108C60004042534000229C4603098B422DD3030A05
:108C70008B4212D3FC22890112BA030A8B420CD315
:108C8000890192118B4208D3890192118B4204D33E
:108C900089013AD0921100E08909C3098B4201D3BE
:108CA000CB01C01A524183098B4201D38B01C01AF8
:108CB000524143098B4201D34B01C01A524103096F
:108CC0008B4201D30B01C01A5241C3088B4201D31E
:108CD000CB00C01A524183088B4201D38B00C01ACB
:108CE0005241D9D243088B4201D34B00C01A5241A2
:108CF000411A00D20146634652415B10104601D32F
:108D00004042002B00D54942704763465B1000D3B8
:108D1000404201B5002000F005F802BD0029F8D05E
:108D200016E770477047C04610B50A22002100F0D0
:108D30008FF910BD70B500260C4D0D4C641BA410AE
:108D4000A64209D1002600F0C9F90A4D0A4C641B5D
:108D5000A410A64205D170BDB300EB589847013668
:108D6000EEE7B300EB5898470136F2E7EC0100203C
:108D7000EC010020EC0100200802002010B5034B9C
:108D80000100186800F06AF810BDC0461C00002001
:108D900010B5034B0100186800F016F810BDC0466E
:108DA0001C000020002310B59A4200D110BDCC5CFD
:108DB000C4540133F8E703001218934200D17047FE
:108DC00019700133F9E7000070B50500002910D0D3
:108DD0000C1F2368002B00DAE418280000F061F96A
:108DE0001D4A1368002B05D163601460280000F051
:108DF00059F970BDA34209D9216860188342F3D1A3
:108E000018685B6841182160EEE713005A68002A71
:108E100001D0A242F9D919685818A0420BD1206894
:108E20000918581819608242E0D110685268411838
:108E300019605A60DAE7A04202D90C232B60D5E70B
:108E400021686018824203D110685268411821607D
:108E500062605C60CAE7C046A8100020032370B5BA
:108E6000CD1C9D43083506000C2D1ED20C25A942B1
:108E70001DD8300000F015F9254A1468210000299A
:108E800019D1244C2368002B03D1300000F044F8A2
:108E900020602900300000F03FF8431C2BD10C2348
:108EA0003000336000F0FEF803E0002DDFDA0C2321
:108EB0003360002070BD0B685B1B19D40B2B03D9EA
:108EC0000B60CC18256003E04B688C420DD1136019
:108ED000300000F0E7F8200007220B30231D9043FC
:108EE000C31AE7D05A42E250E4E763600C00EFE7B0
:108EF0000C004968C3E70323C41C9C43A042E1D093
:108F0000211A300000F008F8431CDBD1C7E7C04647
:108F1000A8100020AC100020002370B5064C0500FE
:108F20000800236000F0CCF8431C03D12368002B19
:108F300000D02B6070BDC046C01000200023C25C72
:108F40000133002AFBD1581E70470000F0B51F0006
:108F50000E0087B00590019102920C98347800F0D1
:108F60008BF8082200194378751C134036D12D2C3C
:108F700036D1B51C74780126002F62D0102F09D18C
:108F8000302C07D120222B789343582B54D1102713
:108F90006C7802352D4B3900F31818000393FFF756
:108FA000D3FD049101210023494202008C461800A0
:108FB0002100303909291AD80C00A74223DD591C99
:108FC00009D06346824206D302D10499A14202DB52
:108FD0000123784320182C780135E9E72E00BCE7FF
:108FE0002B2C01D01E00C7E7B51C7478FAE72100CE
:108FF0004139192901D8373CDFE7210061391929A6
:1090000001D8573CD9E75A1C08D1059A233313607D
:10901000029B0398002B09D107B0F0BD002E00D0B1
:109020004042029A002AF7D0002B01D06B1E019318
:10903000029B019A1A60EFE73024002FAAD108277B
:10904000A8E7302C9ED00A27A4E7C046FFFFFF7F89
:1090500037B51300064A05001068046A002C00D1D9
:10906000044C0A0000942900FFF770FF3EBDC04683
:109070001C00002080000020EC300068704782B0A7
:10908000002900D101A9101E06D0002B06D01378AC
:109090000B601078431E984102B070470220404296
:1090A000FAE7704770470B1E04D0FF2A04D98A23C1
:1090B00003608B3B180070470A700123FAE7000039
:1090C000044A1368002B00D1034B181810601800D5
:1090D0007047C046B0100020C4100020F8B5C0464C
:1090E000F8BC08BC9E467047F8B5C046F8BC08BC42
:1090F0009E4670474B0000004B0000004B000000F4
:109100004B0000004B0000004B0000004B00000033
:109110004A0000004A0000004A0000004A00000027
:109120004A0000004A0000004A0000004A00000017
:109130004A0000004A0000004A0000004900000008
:1091400049000000490000004900000049000000FB
:1091500049000000490000004900000049000000EB
:1091600049000000490000004900000048000000DC
:1091700048000000480000004800000048000000CF
:1091800048000000480000004800000048000000BF
:1091900048000000480000004700000047000000B1
:1091A00047000000470000004700000047000000A3
:1091B0004700000047000000470000004700000093
:1091C0004700000047000000460000004600000085
:1091D0004600000046000000460000004600000077
:1091E0004600000046000000460000004600000067
:1091F000460000004500000045000000450000005A
:10920000450000004500000045000000450000004A
:10921000450000004500000045000000450000003A
:10922000440000004400000044000000440000002E
:10923000440000004400000044000000440000001E
:10924000440000004400000044000000440000000E
:109250004300000043000000430000004300000002
:1092600043000000430000004300000043000000F2
:1092700043000000430000004300000042000000E3
:1092800042000000420000004200000042000000D6
:1092900042000000420000004200000042000000C6
:1092A00042000000420000004200000041000000B7
:1092B00041000000410000004100000041000000AA
:1092C000410000004100000041000000410000009A
:1092D000410000004100000040000000400000008C
:1092E000400000004000000040000000400000007E
:1092F000400000004000000040000000400000006E
:1093000040000000400000003F0000003F0000005F
:109310003F0000003F0000003F0000003F00000051
:109320003F0000003F0000003F0000003F00000041
:109330003F0000003E0000003E0000003E00000034
:109340003E0000003E0000003E0000003E00000025
:109350003E0000003E0000003E0000003E00000015
:109360003D0000003D0000003D0000003D00000009
:109370003D0000003D0000003D0000003D000000F9
:109380003D0000003D0000003D0000003D000000E9
:109390003C0000003C0000003C0000003C000000DD
:1093A0003C0000003C0000003C0000003C000000CD
:1093B0003C0000003C0000003C0000003B000000BE
:1093C0003B0000003B0000003B0000003B000000B1
:1093D0003B0000003B0000003B0000003B000000A1
:1093E0003B0000003B0000003B0000003A00000092
:1093F0003A0000003A0000003A0000003A00000085
:109400003A0000003A0000003A0000003A00000074
:109410003A0000003A000000390000003900000066
:109420003900000039000000390000003900000058
:109430003900000039000000390000003900000048
:10944000390000003900000038000000380000003A
:10945000380000003800000038000000380000002C
:10946000380000003800000038000000380000001C
:10947000380000003700000037000000370000000F
:109480003700000037000000370000003700000000
:1094900037000000370000003700000037000000F0
:1094A00036000000360000003600000036000000E4
:1094B00036000000360000003600000036000000D4
:1094C00036000000360000003600000036000000C4
:1094D00035000000350000003500000035000000B8
:1094E00035000000350000003500000035000000A8
:1094F0003500000035000000350000003400000099
:10950000340000003400000034000000340000008B
:10951000340000003400000034000000340000007B
:10952000340000003400000034000000330000006C
:10953000330000003300000033000000330000005F
:10954000330000003300000033000000330000004F
:109550003300000033000000320000003200000041
:109560003200000032000000320000003200000033
:109570003200000032000000320000003200000023
:109580003200000032000000310000003100000015
:109590003100000031000000310000003100000007
:1095A00031000000310000003100000031000000F7
:1095B00031000000300000003000000030000000EA
:1095C00030000000300000003000000030000000DB
:1095D00030000000300000003000000030000000CB
:1095E0002F0000002F0000002F0000002F000000BF
:1095F0002F0000002F0000002F0000002F000000AF
:109600002F0000002F0000002F0000002F0000009E
:109610002E0000002E0000002E0000002E00000092
:109620002E0000002E0000002E0000002E00000082
:109630002E0000002E0000002E0000002D00000073
:109640002D0000002D0000002D0000002D00000066
:109650002D0000002D0000002D0000002D00000056
:109660002D0000002D0000002D0000002C00000047
:109670002C0000002C0000002C0000002C0000003A
:109680002C0000002C0000002C0000002C0000002A
:109690002C0000002C0000002B0000002B0000001C
:1096A0002B0000002B0000002B0000002B0000000E
:1096B0002B0000002B0000002B0000002B000000FE
:1096C0002B0000002B0000002A0000002A000000F0
:1096D0002A0000002A0000002A0000002A000000E2
:1096E0002A0000002A0000002A0000002A000000D2
:1096F0002A000000290000002900000029000000C5
:1097000029000000290000002900000029000000B5
:1097100029000000290000002900000029000000A5
:109720002800000028000000280000002800000099
:109730002800000028000000280000002800000089
:109740002800000028000000280000002800000079
:10975000270000002700000027000000270000006D
:10976000270000002700000027000000270000005D
:10977000270000002700000027000000260000004E
:109780002600000026000000260000002600000041
:109790002600000026000000260000002600000031
:1097A0002600000026000000260000002500000022
:1097B0002500000025000000250000002500000015
:1097C0002500000025000000250000002500000005
:1097D00025000000250000002400000024000000F7
:1097E00024000000240000002400000024000000E9
:1097F00024000000240000002400000024000000D9
:1098000024000000240000002300000023000000CA
:1098100023000000230000002300000023000000BC
:1098200023000000230000002300000023000000AC
:10983000230000002200000022000000220000009F
:109840002200000022000000220000002200000090
:109850002200000022000000220000002200000080
:109860002100000021000000210000002100000074
:109870002100000021000000210000002100000064
:109880002100000021000000210000002100000054
:109890002000000020000000200000002000000048
:1098A0002000000020000000200000002000000038
:1098B0002000000020000000200000001F00000029
:1098C0001F0000001F0000001F0000001F0000001C
:1098D0001F0000001F0000001F0000001F0000000C
:1098E0001F0000001F0000001F0000001E000000FD
:1098F0001E0000001E0000001E0000001E000000F0
:109900001E0000001E0000001E0000001E000000DF
:109910001E0000001E0000001D0000001D000000D1
:109920001D0000001D0000001D0000001D000000C3
:109930001D0000001D0000001D0000001D000000B3
:109940001D0000001D0000001C0000001C000000A5
:109950001C0000001C0000001C0000001C00000097
:109960001C0000001C0000001C0000001C00000087
:109970001C0000001B0000001B0000001B0000007A
:109980001B0000001B0000001B0000001B0000006B
:109990001B0000001B0000001B0000001B0000005B
:1099A0001A0000001A0000001A0000001A0000004F
:1099B0001A0000001A0000001A0000001A0000003F
:1099C0001A0000001A0000001A0000001A0000002F
:1099D0001900000019000000190000001900000023
:1099E0001900000019000000190000001900000013
:1099F0001900000019000000190000001800000004
:109A000018000000180000001800000018000000F6
:109A100018000000180000001800000018000000E6
:109A200018000000180000001800000017000000D7
:109A300017000000170000001700000017000000CA
:109A400017000000170000001700000017000000BA
:109A500017000000170000001600000016000000AC
:109A6000160000001600000016000000160000009E
:109A7000160000001600000016000000160000008E
:109A80001600000016000000150000001500000080
:109A90001500000015000000150000001500000072
:109AA0001500000015000000150000001500000062
:109AB0001500000014000000140000001400000055
:109AC0001400000014000000140000001400000046
:109AD0001400000014000000140000001400000036
